:100000000C94A9020C94C6020C94C6020C94C6026D
:100010000C94C6020C94C6020C94C6020C94C60240
:100020000C94C6020C94C8020C94C6020C943415AD
:100030000C94C6020C94C40C0C94C6020C94C60218
:100040000C94A4160C94C6020C94C6020C94C6021E
:100050000C94C60223207761726E696E673A206342
:100060006F7272757074206F66667365740A002310
:10007000207761726E696E673A20636F7272757075
:10008000742063616C76616C0A002320646F6E6576
:100090000A002E00232072656164696E6720454561
:1000A0004D454D20000A0023206E756D20696E704D
:1000B0007574733A20006E6F7420696D706C656D95
:1000C000656E7465640A007573652052455420435B
:1000D0005220636F6D6D616E6420656E64730A00FB
:1000E00064697265637420636F6E6E656374696FB3
:1000F0006E20746F20532D7561727420000A206584
:100100006E74657220532D55617274206368616E40
:1001100020312C322C33203E000A00203E000A20E1
:100120006D696E732C20322064677400203E000AD3
:100130002068722C20323468722032206467740088
:10014000203E000A206461792C203220646774000C
:10015000203E000A206D6F6E74682C203220646788
:100160007400203E000A2079722C203420646967D4
:100170006974007900203E006368616E67653F2006
:1001800028792F6E2900656E74657265643A2000C7
:10019000656E7465722076616C7565203E00656ED3
:1001A00074657265643A20000A20656E7465722079
:1001B0006368616E6E656C206E756D6265723E007F
:1001C0003A20003A20000A6368616E3A20206E618E
:1001D0006D653A20206F66667365743A0A000A4FAF
:1001E000666673657420456E7472792028372063C3
:1001F000686172206D6178290A00656E74657265A8
:10020000643A2000656E7465722076616C756520B5
:100210003E0020656E74657265643A20000A2065B0
:100220006E746572206368616E206E756D626572B2
:100230003E003A20003A20000A6368616E3A2020AE
:100240006E616D653A202076616C75653A0A000A28
:1002500043616C2076616C20456E7472792028377A
:100260002063686172206D6178290A0020656E74D0
:10027000657265643A2000656E7465722049442099
:100280003E0020656E74657265643A2000656E7488
:100290006572206E6577206E616D65203E00206579
:1002A0006E74657265643A20000A20656E7465722A
:1002B000206368616E206E756D3E006865616465DF
:1002C000722049442020003A20003A20000A636846
:1002D000616E3A20206E616D650A000A4E616D659F
:1002E00020456E7472792028372063686172206D12
:1002F0006178290A0020656E7465723E00313A20EB
:100300004E616D6573200A323A2043616C2076613C
:100310006C200A333A206F6666736574200A343A9B
:100320002074696D65200A353A20434F32200A0057
:100330005665723A2000616C002320747970652044
:1003400063616C2028696E203520736563290A007B
:1003500023686561646572733A200A0023726561DF
:100360006420686561646572730A002374696D6551
:100370002073616D706C696E670A00237465737415
:1003800020726573756C74207274633D002374650C
:100390007374206368616E730A002374657374203C
:1003A000726573756C7420636820002374657374C0
:1003B00020726573756C7420636820002374657304
:1003C0007420726573756C742063682000237465F3
:1003D000737420726573756C7420636820002374D5
:1003E00065737420726573756C7420636820000AED
:1003F000007365633A20006D696E3A2000686F757E
:10040000723A20006461793A20006D6F6E74683A28
:100410002000796561723A20000A0D00494E464974
:100420004E4954594E414ECDCCCC3D0AD7233C17B2
:10043000B7D13877CC2B329595E6241FB14F0A00FF
:100440000020410000C84200401C4620BCBE4CCAEF
:100450001B0E5AAEC59D7400407A10F35A00A0726C
:100460004E18090010A5D4E80000E87648170000EF
:10047000E40B54020000CA9A3B000000E1F50500BD
:100480000080969800000040420F000000A0860106
:10049000000000102700000000E8030000000064D6
:1004A00000000000000A0000000000010000000041
:1004B000002C76D888DC674F0823DFC1DFAE59E116
:1004C000B1B796E5E3E453C63AE651997696E8E685
:1004D000C28426EB898C9B62ED407C6FFCEFBC9C58
:1004E0009F40F2BAA56FA5F490055A2AF75C936B6A
:1004F0006CF9676DC11BFCE0E40D47FEF520E6B525
:1005000000D0ED902E0300943577050080841E08FE
:100510000000204E0A000000C80C333333330F981C
:100520006E12831141EF8D2114893BE65516CFFEE3
:10053000E6DB18D1844B381BF77C1D901DA4BBE46F
:1005400024203284725E228100C9F124ECA1E53DB1
:10055000270011241FBECFE5D8E0DEBFCDBF10E0DD
:10056000A0E6B0E0EEE9F4E402C005900D92A63FEB
:10057000B107D9F711E0A6EFB0E001C01D92A2309B
:10058000B107E1F70E94D2070C94071C0C940000FD
:100590001F920F920FB60F9211248F938091FB0040
:1005A0008F5F8093FB008F910F900FBE0F901F9075
:1005B00018950F931F93DF93CF9300D000D00F9225
:1005C000CDB7DEB7959A89E393E00E94500C549A18
:1005D000579A80E090E0DC010BC00196A11DB11D8F
:1005E000803226ED920723E1A20720E0B20759F1FD
:1005F0005F9BF3CF803226ED920723E1A20720E034
:10060000B20708F50E945E0C8336E9F40E947D0B68
:100610008E010F5F1F4FC80164E00E94750CC80176
:1006200066E373E00E94121C009769F480E393E094
:100630000E94500C8EE391E00E94890B8AE00E9498
:100640007D0B81E001C080E095980F900F900F9096
:100650000F900F90CF91DF911F910F9108956F929E
:100660007F928F929F92AF92BF92CF92DF92EF9242
:10067000FF920F931F93CF93DF93EC0187EA90E0F3
:100680000E94500C80E0BE010E94640D8E01005259
:100690001E4FF801808190E00E94890B85EA90E06E
:1006A0000E94500C84E990E00E94500CF8010081F7
:1006B00010E014C082E0BE01412F0E94221784E0A6
:1006C000BE01412F0E94221786E0BE01412F0E94E9
:1006D000221782E990E00E94500C1F5F101750F320
:1006E00088E0BE0140E00E9422178AE890E00E9464
:1006F000500C10E030EE632E31E0732E6C0E7D1E38
:1007000020EA822E912C8C0E9D1E90E4A92E91E061
:10071000B92EAC0EBD1E46C0C12FD0E083E0CC0F79
:10072000DD1F8A95E1F7C4018C0F9D1F60E070E02A
:100730000E9464196B017C0120E03FEF4FE757E412
:100740000E94DB18181654F0C701B60120E03FEFF5
:100750004FE757EC0E94251887FF04C08FE690E012
:100760000E94500CC5018C0F9D1F60E070E00E943C
:1007700064196B017C0120E03FEF4FE757E40E94D2
:10078000DB18181654F0C701B60120E03FEF4FE721
:1007900057EC0E94251887FF04C084E590E00E9472
:1007A000500C1F5FF3018081181708F4B5CFDF915B
:1007B000CF911F910F91FF90EF90DF90CF90BF905E
:1007C000AF909F908F907F906F9008952F923F925F
:1007D0004F925F926F927F928F929F92AF92BF9251
:1007E000CF92DF92EF92FF920F931F93DF93CF93FD
:1007F000CDB7DEB761970FB6F894DEBF0FBECDBFA1
:100800006C0119861A861B861C86FE013D9685E0C2
:10081000DF011D928A95E9F7C6010E942F0339E096
:10082000E32EF12CEC0EFD1E20EEA22E21E0B22EC6
:10083000AC0CBD1C90E4692E91E0792E6C0C7D1CF3
:1008400087EF282E82E0382E2C0C3D1C00EA402E2B
:10085000512C4C0C5D1C8DEF92E00E94500C85EFEA
:1008600092E00E94500CC70163E00E94750C88233F
:1008700091F3C7010E94E91B833009F432C184302F
:1008800028F4813049F0823031F7B1C0843009F466
:100890009EC1853001F723C28BED92E00E94500C7F
:1008A0008DEC92E00E94500C992417C0092D10E0A5
:1008B000C8010E94890B8AEC92E00E94500CC8018A
:1008C00013E0880F991F1A95E1F78C0D9D1D0E946A
:1008D000370C8AE00E947D0B9394F5018081981675
:1008E00028F390E00E94890B87EC92E00E94500C64
:1008F0008BEB92E00E94500CD1018C9190E00E9411
:10090000890B8AE00E947D0BB9E08B2EF701882DC0
:1009100011928A95E9F789EA92E00E94500CC7018A
:1009200063E00E94750C882309F495CFC7010E94EB
:10093000E91B982E8EE992E00E94500C092D10E0E0
:10094000C8010E94890B8AE00E947D0BD7011D928D
:100950008A94E9F7F5018081981620F58DE892E0F8
:100960000E94500CC70168E00E94750C8823D1F0EA
:1009700082E892E00E94500CC7010E94370C8AE086
:100980000E947D0BC801A3E0880F991FAA95E1F78B
:100990008C0D9D1DB7010E94451C83E0B601492DB9
:1009A0000E942217D5018C91981609F054CF87E741
:1009B00092E00E94500CC70164E00E94750C8823ED
:1009C00009F449CFC7010E94E91B082F8CE692E089
:1009D0000E94500C802F90E00E94890B8AE00E94B8
:1009E0007D0BF101008389E0B60140E077C08FE420
:1009F00092E00E94500C88E392E00E94500C9924EF
:100A000020C0092D10E0C8010E94890B85E392E007
:100A10000E94500CF3E0000F111FFA95E1F7C60198
:100A2000800F911F0E94370C82E392E00E94500CCD
:100A3000C201800F911F0E94370C8AE00E947D0B3B
:100A40009394D5018C919816E0F2E9E08E2EF7018F
:100A5000882D11928A95E9F78DE192E00E94500C61
:100A6000C70163E00E94750C882309F4F4CEC70126
:100A70000E94E91B982E82E192E00E94500C092D01
:100A800010E0C8010E94890B8AE00E947D0BD7010B
:100A90001D928A94E9F784E092E00E94500CC7010D
:100AA00068E00E94750C882309F4D5CE8AEF91E0A6
:100AB0000E94500CC7010E94370C8AE00E947D0BF7
:100AC000C80173E0880F991F7A95E1F7840D951D91
:100AD000B7010E94451C85E0B601492D0E942217EE
:100AE000BACE8EED91E00E94500C86EC91E00E940F
:100AF000500C992420C0092D10E0C8010E94890BD8
:100B000083EC91E00E94500C63E0000F111F6A9586
:100B1000E1F7C601800F911F0E94370C80EC91E035
:100B20000E94500CC301800F911F0E94370C8AE075
:100B30000E947D0B9394F50180819816E0F259E0B4
:100B4000852ED701E82D1D92EA95E9F788EA91E014
:100B50000E94500CC70164E00E94750C882309F4C0
:100B60007ACEC7010E94E91B982E8EE991E00E947F
:100B7000500C092D10E0C8010E94890B8AE00E94E8
:100B80007D0BD7011D928A94E9F780E991E00E94DC
:100B9000500CC70168E00E94750C882309F45BCEF5
:100BA00086E891E00E94500CC7010E94370C8AE051
:100BB0000E947D0BC80143E0880F991F4A95E1F719
:100BC000860D971DB7010E94451C87E085CF0E94C6
:100BD0001E1389E0F70111928A95E9F788E791E001
:100BE0000E94500C85E791E00E94500CC70163E021
:100BF0000E94750C882309F42ECEC70163E771E0CB
:100C00000E94121C009709F067C085E691E00E94DF
:100C1000500C82E691E00E94500CC70167E00E94F0
:100C2000750C882329F0C7010E94E91B9A838983E8
:100C300083E591E00E94500C80E591E00E94500C09
:100C4000C70167E00E94750C882321F0C7010E944C
:100C5000E91B8B8383E491E00E94500C80E491E0D7
:100C60000E94500CC70167E00E94750C882321F098
:100C7000C7010E94E91B8C838FE291E00E94500C17
:100C80008CE291E00E94500CC70167E00E94750C55
:100C9000882321F0C7010E94E91B8E838EE191E039
:100CA0000E94500C8BE191E00E94500CC70167E05C
:100CB0000E94750C882321F0C7010E94E91B8F83D5
:100CC0001886CE0101960E947C1290E00E94890B4A
:100CD00089E191E00E94500C0E941E13BCCD89E076
:100CE000D7011D928A95E9F78DEF90E00E94500C94
:100CF000C70163E00E94750CC7010E94E91B082F21
:100D000080EE90E00E94500C802F90E00E94890BB2
:100D10008AE00E947D0B87EC90E00E94500C802FAF
:100D20000E94410B86EB90E00E94500C94CD6F9294
:100D30007F929F92AF92BF92CF92DF92EF92FF92FB
:100D40000F931F93DF93CF9300D000D0CDB7DEB7C2
:100D50006C018DEFE82E81E0F82EEC0CFD1CC70134
:100D600060E670E00E943A1C80919300909194009C
:100D7000A0919500B091960089839A83AB83BC8340
:100D8000F601E950FD4F808190E08E010F5F1F4F0B
:100D9000B8014AE050E00E944C1CC701B8010E9413
:100DA0003A1CC7016DE670E00E943A1C992400EEDF
:100DB000A02E01E0B02EAC0CBD1C10EA612E712CEF
:100DC0006C0C7D1C1AC0092D10E0B801B3E0660F51
:100DD000771FBA95E1F7660D771DC7010E943A1C8F
:100DE000F501808190E00197081719072CF4C701DD
:100DF0006DE670E00E943A1C9394F501808198168C
:100E000010F3C7016FE670E00E943A1CC7010E9410
:100E10005D15C70161E770E00E943A1CC701BE0181
:100E20006F5F7F4F0E943A1CC7016DE670E00E9421
:100E30003A1C9924A0EEAA2EA1E0BA2EAC0CBD1C3F
:100E4000F0E46F2EF1E07F2E6C0C7D1C1AC0092D92
:100E500010E0B801E3E0660F771FEA95E1F7660D51
:100E6000771DC7010E943A1CF501808190E001972F
:100E7000081719072CF4C7016DE670E00E943A1CB0
:100E80009394F5018081981610F3C7016FE670E026
:100E90000E943A1CC7010E945D15C7016EE770E011
:100EA0000E943A1C992450EEA52E51E0B52EAC0CB0
:100EB000BD1C1AC0092D10E0B80143E0660F771F72
:100EC0004A95E1F76C0D7D1DC7010E943A1CF501A2
:100ED000808190E00197081719072CF4C7016DE68F
:100EE00070E00E943A1C9394F5018081981610F3EB
:100EF000C7016FE670E00E943A1CC7010E945D15B1
:100F00000F900F900F900F90CF91DF911F910F9145
:100F1000FF90EF90DF90CF90BF90AF909F907F9029
:100F20006F9008950F931F93CF93DF93EC0110926E
:100F3000FB0089B7846089BF1DBC1CBC8EB5856071
:100F40008EBD789489E0BE010E94640D8EB58EBD81
:100F50008CB59DB596958795969587954091FB00A4
:100F6000885A9D4F50E068EE73E0469F9001479F7E
:100F7000300D569F300D1124820F931F0E94E021E7
:100F80008B010F5F1F4FC350DE4F8AEF19928150C4
:100F9000E9F78AE00E947D0BC801DF91CF911F9194
:100FA0000F9108952F923F924F925F926F927F928E
:100FB0008F929F92AF92BF92CF92DF92EF92FF9269
:100FC0000F931F93DF93CF93CDB7DEB7CE50D340AF
:100FD0000FB6F894DEBF0FBECDBF8D9A0E94750B81
:100FE000FE01E65FFD4FCE018C5F9C4F1192E8172A
:100FF000F907E1F78E01035F1F4F80E0B8010E94FF
:10100000640D0E94D902882319F0C8010E94E603EA
:10101000549857988DE893E00E94500C5DE0C52EDF
:10102000D12CCC0EDD1E8AE0B6010E94640D8BE748
:1010300093E00E94500C0E94D01290E00E94890B15
:101040008AE00E947D0B8BE693E00E94500CC60163
:101050000E9492077C018CE593E00E94500CC6012F
:101060000E942F0380E593E00E94500CC6010E946D
:1010700097068E010E5F1D4FC8010E940612C8011F
:101080000E9483134B015C01970140E050E0CB5F6D
:10109000DC4F288339834A835B83C550D340260FB6
:1010A000371F481F591FC75FDC4F288339834A8386
:1010B0005B83C950D34088E194E00197F1F700C009
:1010C00029013A0118018E010F5F1F4F4AE0E42EFB
:1010D00042E0F42EEC0EFD1EC35FDC4FC882CD5003
:1010E000D340C25FDC4FD882CE50D3403EE9C32EFE
:1010F00030E0D32E0DC0C1010E940612C1010E9432
:1011000083134B015C01A8E1B4E01197F1F700C033
:1011100084149504A604B70470F3D801E2EAF0E061
:101120008CE001900D928150E1F7F10160817181B5
:1011300080E090E0A8012AE030E00E94751CC70121
:10114000B8010E943A1CCC5FDD4F6881C450D24088
:1011500070E080E090E0A8012AE030E00E94751C79
:10116000F80101900020E9F73297E017F10729F420
:10117000C70168E970E00E943A1CC701B8010E94EB
:101180003A1CCB5FDD4F6881C550D24070E080E0F3
:1011900090E0A8012AE030E00E94751CF80101905F
:1011A0000020E9F73297E017F10729F4C70168E951
:1011B00070E00E943A1CC701B8010E943A1CC701A6
:1011C0006AE970E00E943A1CC95FDD4F6881C75030
:1011D000D24070E080E090E0A8012AE030E00E9478
:1011E000751CF80101900020E9F73297E017F1072C
:1011F00029F4C70168E970E00E943A1CC701B801F0
:101200000E943A1CC7016CE970E00E943A1CC85F5A
:10121000DD4F6881C850D24070E080E090E0A801C6
:101220002AE030E00E94751CF80101900020E9F7E7
:101230003297E017F10729F4C70168E970E00E94CE
:101240003A1CC701B8010E943A1CC7016CE970E062
:101250000E943A1CC75FDD4F6881C950D24070E0E0
:1012600080E090E0A8012AE030E00E94751CF801BF
:1012700001900020E9F73297E017F10729F4C70140
:1012800068E970E00E943A1CC701B8010E943A1C4C
:10129000C7016DE670E00E943A1CCB5FDC4F4880CE
:1012A00059806A807B80C550D340480C591C6A1C09
:1012B0007B1C2DB73EB7285030400FB6F8943EBF88
:1012C0000FBE2DBFEDB7FEB73196ADB7BEB71296C4
:1012D0001C930E931197D382C282D501C401C75FBC
:1012E000DC4F288139814A815B81C950D340821B00
:1012F000930BA40BB50B84839583A683B7830E94BD
:101300009A1C4DB75EB7485F5F4F0FB6F8945EBF4B
:101310000FBE4DBFC701B8010E943A1CC7016DE660
:1013200070E00E943A1CCC5FDC4F8881C450D340EF
:1013300090E0B8014AE050E00E944C1CC701B8019F
:101340000E943A1CC7016DE670E00E943A1C81E0E1
:10135000C35FDC4F6881CD50D340C25FDC4F7881E2
:10136000CE50D3400E94640DC7016FE670E00E942A
:101370003A1CC7010E945D15CBCE11B88CE080B934
:10138000089594EA96BF06B607FEFDCF91B1987F07
:10139000983011F0903179F483B984E886BF06B6AD
:1013A00007FEFDCF91B1987F983139F081E09034FC
:1013B00029F480E0089581E0089580E0089544EAEA
:1013C00034E824E919C046BF06B607FEFDCF91B147
:1013D000987F983011F0903179F483B936BF06B612
:1013E00007FEFDCF91B1987F903211F0983551F4FE
:1013F00026BF06B604FCFDCF9091F600913019F798
:1014000081E0089580E008950E94C109089584E96B
:1014100086BF04C08091F600813019F006B604FC46
:10142000F9CF089583B984E886BF04C08091F6009F
:10143000813019F006B607FEF9CF91B1987F81E0AF
:10144000983209F480E0089584EC86BF04C080914E
:10145000F600813019F006B607FEF9CF83B1089582
:1014600084E886BF04C08091F600813019F006B68A
:1014700007FEF9CF83B10895282F0FB6822F8095EC
:101480009AE0F89470E97A95F1F708F0C69A08F4B2
:10149000C69886959A95B1F70FBE0895282F0FB676
:1014A000822F80959AE0F89470E97A95F1F708F028
:1014B000D99A08F4D99886959A95B1F70FBE0895F0
:1014C000823071F08330B1F08130E9F4BE9A8BEE56
:1014D00091E50197F1F700C080E00E943C0A089571
:1014E000D19A80E00E944E0A8BEE91E50197F1F7C8
:1014F00000C00895D79A80E00E944E0A8BEE91E5D5
:101500000197F1F700C00895282F0FB6822F80951C
:101510009AE0F89470E97A95F1F708F0DF9A08F408
:10152000DF9886959A95B1F70FBE08951F93CF93D4
:10153000DF93182FEB0117C0123041F0133051F038
:10154000113059F421960E943C0A07C021960E944E
:101550004E0A03C021960E94840A85EF98E2019703
:10156000F1F700C000008881882331F7DF91CF9127
:101570001F9108950FB680E89E9910C0B59BFCCFCF
:101580009E990CC0B599FCCF98E49A95F1F791E932
:101590009A95F1F78695B5998068C8F7282F0FBE00
:1015A000822F08950FB680E89E9910C0C89BFCCF8B
:1015B0009E990CC0C899FCCF98E49A95F1F791E9EF
:1015C0009A95F1F78695C8998068C8F7282F0FBEBD
:1015D000822F0895EF92FF920F931F93CF93DF9383
:1015E000F82EEB01EE2480E0042F10E001501040B3
:1015F0009F2D923039F0933029F0913029F40E94D8
:10160000BA0A02C00E94D20A8D30C9F08A30B9F0FD
:101610009091FF00913099F0883021F4EE2041F351
:10162000EA94E6CF803220F32E2D30E020173107E8
:10163000FCF62C0F3D1FF9018083E394D9CFCE0D2A
:10164000D11D1882DF91CF911F910F91FF90EF90E4
:1016500008950FB680E89E9910C0CE9BFCCF9E994E
:101660000CC0CE99FCCF98E49A95F1F791E99A9540
:10167000F1F78695CE998068C8F7282F0FBE822F84
:1016800008955498579853985698899A8898813015
:1016900069F4BE9ABD98B59B02C0919A01C0919819
:1016A000809B02C0C69AF7CFC698F5CF823069F406
:1016B000D19AD098C89B02C0919A01C09198809B02
:1016C00002C0D99AF7CFD998F5CF833069F4D79A69
:1016D000D698CE9B02C0919A01C09198809B02C07F
:1016E000DF9AF7CFDF98F5CF089510BC8AE189B96A
:1016F00086E880BD88E98AB908951F93182F8A303B
:1017000019F48DE00E947D0B5D9BFECF1CB91F91EB
:101710000895AF92BF92CF92DF92EF92FF920F9314
:101720001F93CF93DF938C0195E0E92EF12C20E0FD
:10173000C0E1D7E28AE0C82ED12CC801BE010E94C8
:10174000E021B62E662329F4222319F4C130D105F5
:1017500029F48B2D805D0E947D0B21E0CE01B60126
:101760000E94E0210894E108F108E114F10489F0F5
:101770004B2D50E04C9FC0014D9F900D5C9F900DF4
:101780001124081B190BA62EE5015E01B72EE501F9
:10179000D4CFDF91CF911F910F91FF90EF90DF9009
:1017A000CF90BF90AF9008954F925F926F927F92CB
:1017B0008F929F92AF92BF92CF92DF92EF92FF9261
:1017C0000F931F93CF93DF935B016C01CAE0D0E0CE
:1017D0004424E12C2AECF22E2AE9022F2BE3122FCB
:1017E000C601B501A80197010E94F421922E22237F
:1017F00041F4442031F481E0E816F10401051105BB
:1018000031F4892D805D0E947D0B44244394C801EE
:10181000B7012AE030E040E050E00E94F421822E3F
:10182000732E642E552E219789F0692D70E080E08B
:1018300090E0A80197010E94B521A61AB70AC80A2C
:10184000D90AE82CF72C062D152DCACFDF91CF91A0
:101850001F910F91FF90EF90DF90CF90BF90AF90CE
:101860009F908F907F906F905F904F900895EF9230
:10187000FF92CF93DF93E82EE7017E01F92EE70177
:1018800002C00E947D0B89918823D9F788E194E0FA
:101890000197F1F700C0DF91CF91FF90EF9008958D
:1018A000CF93DF93EC01FE0121968491882319F0F8
:1018B0000E947D0BF8CFDF91CF9108955F9BFECF03
:1018C0008CB18D3009F48AE008951092FF000E94D7
:1018D000721504C08091FF00813011F05F9BFACF38
:1018E0008CB18D3009F48AE00895AF92BF92DF92F7
:1018F000EF92FF920F931F93DF93CF930F92CDB789
:10190000DEB75C01062F60E070E0402F50E00E94DF
:10191000331CDD2410E00150104025C00E945E0CF5
:10192000982F883011F08F3789F4DD20E1F0DA94B8
:10193000F501ED0DF11D108288E00E947D0B80E223
:101940000E947D0B88E00E947D0B0DC099830E9450
:101950007D0BF501EE0DFF1D99819A3011F4108277
:1019600007C09083D394ED2CFF24E016F106B4F267
:101970008D2D0F90CF91DF911F910F91FF90EF90E0
:10198000DF90BF90AF90089518954F925F926F923D
:101990007F928F929F92AF92BF92CF92DF92EF92FF
:1019A000FF920F931F93DF93CF93CDB7DEB72C97A2
:1019B0000FB6F894DEBF0FBECDBF5B016C017A019C
:1019C000122FDE011196E1EBF0E08CE001900D9218
:1019D0008150E1F78FEFA8168FEFB80680E0C806B8
:1019E00080E0D8060CF03FC0970120563F4F60EED4
:1019F000862E61E0962E8E0C9F1CF401808190E073
:101A000053E0880F991F5A95E1F7820F931F60E00A
:101A100070E00E9464192B013C01C601B5010E94CF
:101A20002B18A30192010E94DF18062F472EA82E23
:101A3000D92E9701205C3E4FF401808190E043E075
:101A4000880F991F4A95E1F7820F931F60E070E0BD
:101A50000E9464199B01AC01602F742D8A2D9D2D6D
:101A60000E94C11704C060E070E080E897E441E0A4
:101A7000212F5E010894A11CB11C85010E9442190E
:101A80008DEF91E0E80EF91EC701B5010E943A1CE6
:101A9000C7016FEA70E00E943A1C2C960FB6F894CA
:101AA000DEBF0FBECDBFCF91DF911F910F91FF9091
:101AB000EF90DF90CF90BF90AF909F908F907F90EE
:101AC0006F905F904F9008958F929F92AF92BF92C8
:101AD000CF92DF92FF920F931F93DF93CF930F92DA
:101AE000CDB7DEB7F82E4B018B0100521E4FF80127
:101AF0001082893031F0813039F08A3009F055C0D8
:101B000021C0F1E0F98301C019820E946C1588E2BE
:101B100060EA48E80E941215A40121E00E94C50C69
:101B20002981213009F043C083E20E947D0BF4013A
:101B3000E052FE4F808190E00E94890B80E20E947B
:101B40007D0B36C0FB01EF51FE4F10820E94BD0994
:101B50001092F6000E9472150E947C1513BE8091AF
:101B6000F600F8019081F401E90FF11DEF51FE4FED
:101B700080831092F6008EED93E00E94500CF801E5
:101B8000808190E00E94890B8DE30E947D0BF8011B
:101B90008081F401E80FF11DEF51FE4F808190E04C
:101BA0000E94890B8AE00E947D0B198203C0198272
:101BB000FF24F394840100521E4FF80180818F5F4F
:101BC0008083FF2DF13019F0FA3019F51AC00E9408
:101BD0006C1588E261EA48E80E941215A40121E030
:101BE0000E94C50C29812130A1F483E20E947D0B63
:101BF000F801808190E00E94890B80E20E947D0BB9
:101C000008C0F401E80FF11DEF51FE4F10820E9451
:101C1000BD09840100521E4FF80180818F5F8083CF
:101C2000FF2DF13021F0FA3009F067C02CC00E947E
:101C30006C15F8018081F401E80FF11DEF51FE4FA2
:101C40008081813041F460E070E0CB01A40121E0AB
:101C50000E94C50C52C081E00E942816BC0180E0A1
:101C600090E0A40120E00E94C50CF981F13009F058
:101C700044C083E20E947D0BF801808190E00E94C5
:101C8000890B80E238C0F401E80FF11DEF51FE4FDF
:101C9000108281E00E9406161092FF00A69AAE986C
:101CA0000E94721581E00E94281613BE8091FF00E9
:101CB000F8019081F401E90FF11DEF51FE4F80838F
:101CC0001092FF00AE988DEC93E00E94500CF8014A
:101CD000808190E00E94890B8DE30E947D0BF801CA
:101CE0008081F401E80FF11DEF51FE4F808190E0FB
:101CF0000E94890B8AE00E947D0B840100521E4FD6
:101D0000F80180818F5F8083FF2DF13021F0FA3060
:101D100009F067C02CC00E946C15F8018081F401A5
:101D2000E80FF11DEF51FE4F8081813041F460E0FA
:101D300070E0CB01A40121E00E94C50C52C082E0FA
:101D40000E942816BC0180E090E0A40120E00E94DF
:101D5000C50CF981F13009F044C083E20E947D0B8B
:101D6000F801808190E00E94890B80E238C0F40184
:101D7000E80FF11DEF51FE4F108282E00E9406161F
:101D80001092FF00A69AAE980E94721582E00E94FF
:101D9000281613BE8091FF00F8019081F401E90F2D
:101DA000F11DEF51FE4F80831092FF00AE988CEB37
:101DB00093E00E94500CF801808190E00E94890B12
:101DC0008DE30E947D0BF8018081F401E80FF11D85
:101DD000EF51FE4F808190E00E94890B8AE00E94C3
:101DE0007D0B840100521E4FF80180818F5F80833C
:101DF000FF2DF13019F0FA3019F51AC00E946C1558
:101E000088E266EA48E80E941215A40120E00E94D8
:101E1000C50C29812130A1F483E20E947D0BF801D9
:101E2000808190E00E94890B80E20E947D0B08C0B7
:101E3000F401E80FF11DEF51FE4F10820E94BD0921
:101E4000840100521E4FF80180818F5F8083FF2D37
:101E5000F13019F0FA3019F51AC00E946C1588E2B9
:101E600065EA48E80E941215A40120E00E94C50C12
:101E700029812130A1F483E20E947D0BF801808149
:101E800090E00E94890B80E20E947D0B08C0F40163
:101E9000E80FF11DEF51FE4F10820E94BD09840131
:101EA00000521E4FF80180818F5F8083FF2DF1303B
:101EB00019F0FA3019F51AC00E946C1588E262EA2E
:101EC00048E80E941215A40120E00E94C50C298157
:101ED0002130A1F483E20E947D0BF801808190E023
:101EE0000E94890B80E20E947D0B08C0F401E80F7C
:101EF000F11DEF51FE4F10820E94BD098401005276
:101F00001E4FF80180818F5F8083FF2DF13019F023
:101F1000FA3019F51AC00E946C1588E263EA48E8A5
:101F20000E941215A40120E00E94C50C29812130D5
:101F3000A1F483E20E947D0BF801808190E00E9471
:101F4000890B80E20E947D0B08C0F401E80FF11DAF
:101F5000EF51FE4F10820E94BD09840100521E4FB6
:101F6000F80180818F5F8083FF2DF13019F0FA3006
:101F700019F51AC00E946C1588E264EA48E80E94CC
:101F80001215A40120E00E94C50C29812130A1F482
:101F900083E20E947D0BF801808190E00E94890B12
:101FA00080E20E947D0B08C0F401E80FF11DEF51A3
:101FB000FE4F10820E94BD09840100521E4FF8019D
:101FC00080818F5F8083FF2DF13019F0FA3019F591
:101FD0001AC00E946C1588E26FEB48E80E94121547
:101FE000A40121E00E94C50C29812130A1F483E2E3
:101FF0000E947D0BF801808190E00E94890B80E2B5
:102000000E947D0B08C0F401E80FF11DEF51FE4F57
:1020100010820E94BD09840100521E4FF801808188
:102020008F5F8083FF2DF13019F0FA3041F51FC02A
:102030000E946C1582E065E00E94EA169C01B901DD
:10204000882777FD8095982FA40120E00E94C50C79
:1020500039813130A1F483E20E947D0BF801808147
:1020600090E00E94890B80E20E947D0B08C0F40181
:10207000E80FF11DEF51FE4F10820E94E41684011B
:1020800000521E4FF80180818F5F8083FF2DF13059
:1020900019F0FA3041F51FC00E946C1583E065E02D
:1020A0000E94EA169C01B901882777FD8095982F38
:1020B000A40120E00E94C50C39813130A1F483E2F3
:1020C0000E947D0BF801808190E00E94890B80E2E4
:1020D0000E947D0B08C0F401E80FF11DEF51FE4F87
:1020E00010820E94E416840100521E4FF801808184
:1020F0008F5F8083FF2DF13021F0FA3009F065C049
:102100002FC00E946C15F8018081F401E80FF11DC9
:10211000EF51FE4F8081813041F460E070E0CB01EF
:10212000A40121E00E94C50C50C00E94BF155B01B4
:102130006C01B60180E090E0A40120E00E94C50C93
:10214000F981F13009F043C083E20E947D0BF80170
:10215000808190E00E94890B80E20E947D0B37C055
:10216000F401E80FF11DEF51FE4F10820E94BD09EE
:102170001092F6000E9472150E94BF1513BE809146
:10218000F600F8019081F401E90FF11DEF51FE4FC7
:1021900080831092F6008BEA93E00E94500CF801C5
:1021A000808190E00E94890B8DE30E947D0BF801F5
:1021B0008081F401E80FF11DEF51FE4F808190E026
:1021C0000E94890B8AE00E947D0BAA24BB24840113
:1021D00000521E4FF80180818F5F8083FF2DF13008
:1021E00021F0FA3009F05FC029C00E946C15F80197
:1021F0008081F401E80FF11DEF51FE4F80818130A5
:1022000041F460E070E0CB01A40121E00E94C50C24
:102210004AC0B50180E090E0A40120E00E94C50C16
:10222000F981F13009F03FC083E20E947D0BF80193
:10223000808190E00E94890B80E233C0F401E80FB6
:10224000F11DEF51FE4F10820E94BD091092F60061
:102250000E9472150E94BF1513BE8091F600F8010E
:102260009081F401E90FF11DEF51FE4F8083109230
:10227000F6008AE993E00E94500CF801808190E01A
:102280000E94890B8DE30E947D0BF8018081F4018F
:10229000E80FF11DEF51FE4F808190E00E94890B05
:1022A0008AE00E947D0B840100521E4FF80180815C
:1022B0008F5F8083FF2DF13019F0FA3041F51FC098
:1022C0000E946C1584E065E00E94EA169C01B90149
:1022D000882777FD8095982FA40121E00E94C50CE6
:1022E00039813130A1F483E20E947D0BF8018081B5
:1022F00090E00E94890B80E20E947D0B08C0F401EF
:10230000E80FF11DEF51FE4F10820E94E416F40118
:10231000E052FE4F80818F5F8083D401A350BE4F77
:10232000FD0101900020E9F7EA1BFB0BE80DF91D08
:10233000E550FE4F80818C3209F410820F90CF91CE
:10234000DF911F910F91FF90DF90CF90BF90AF90E2
:102350009F908F900895EF92FF920F931F93DF93BA
:10236000CF9300D00F92CDB7DEB7182F042F2A835A
:102370003B8369830E94DF096981862F0E94120ACC
:10238000812F81600E94C1092A813B81422F532FF6
:102390007A01015019F00E94240A02C00E94300AFA
:1023A000F70181937F010023A1F70E94070A0F9094
:1023B0000F900F90CF91DF911F910F91FF90EF90B1
:1023C0000895EF92FF921F93DF93CF930F92CDB7B3
:1023D000DEB7142FE22FF32F7F0169830E94DF09FC
:1023E0006981862F0E94120AF70181917F010E9464
:1023F000120A882311F41150B9F70E94070A0F90AE
:10240000CF91DF911F91FF90EF9008950F931F934D
:10241000DF93CF93CDB7DEB728970FB6F894DEBF22
:102420000FBECDBF8C0180ED60E047E09E012F5FC5
:102430003F4F0E94AB112981922F969596959695C4
:102440009E70892F880F880F890F2F70820FF801D7
:1024500087832A81922F92959F70990F892F880FD9
:10246000880F890F2F70820F86832B81922F96956C
:10247000969596959670892F880F880F890F922FC1
:102480009F70890F8583277024832D81922F9695C5
:10249000969596959670892F880F880F890F2F70C3
:1024A000820F83832E81922F9695969596959270A2
:1024B000892F880F880F890F2F70820F82832F81B9
:1024C000822F90E08F7090708053984F22952F70DC
:1024D0003AE0239F90011124820F931F9183808300
:1024E00081E028960FB6F894DEBF0FBECDBFCF9126
:1024F000DF911F910F910895DF93CF93CDB7DEB792
:1025000028970FB6F894DEBF0FBECDBFFC01378110
:1025100086812AE0622F0E94D4218295807F890FD4
:102520008A8385810E94D4218295807F890F8B8345
:10253000848187708C8383810E94D4218295807FDF
:10254000890F8D8382810E94D4218295807F890F9B
:102550008E8380819181805D97406AE070E00E9467
:10256000E0216295607F680F6F83832F622F0E9446
:10257000D4218295807F890F8F77898380ED60E0F9
:1025800047E09E012F5F3F4F0E94E11181E02896B6
:102590000FB6F894DEBF0FBECDBFCF91DF91089587
:1025A000FF920F931F93DF93CF93CDB7DEB7299799
:1025B0000FB6F894DEBF0FBECDBF0E94BD091092CA
:1025C000F6000E94721580ED60E048E08E010F5F1A
:1025D0001F4F98010E94AB11888585FF20C088E0BD
:1025E000F80111928A95E9F798E0F02E012F8DE01D
:1025F000692F48E02F2D302F99870E94E11199858E
:10260000985F9034A1F781E08D838E8388E08F837B
:102610008DE060E048E02F2D302F0E94E11113BEC5
:102620008091F60029960FB6F894DEBF0FBECDBF9D
:10263000CF91DF911F910F91FF9008951F93DF932A
:10264000CF93CDB7DEB728970FB6F894DEBF0FBE95
:10265000CDBF89E194E00E94500CCE0101960E940A
:102660000612182F83E20E947D0B82E194E00E9403
:10267000500C89819A810E94890B80E20E947D0B17
:102680008AE094E00E94500C8B8190E00E94890BBC
:1026900080E20E947D0B84E094E00E94500C8C81CB
:1026A00090E00E94890B80E20E947D0B8DEF93E009
:1026B0000E94500C8E8190E00E94890B80E20E9463
:1026C0007D0B87EF93E00E94500C8F8190E00E9479
:1026D000890B80E20E947D0B81EF93E00E94500CF9
:1026E000888590E00E94890B8FEE93E00E94500C49
:1026F000812F28960FB6F894DEBF0FBECDBFCF91C5
:10270000DF911F9108956F927F928F929F92AF9267
:10271000BF92CF92DF92EF92FF920F931F93CF93CE
:10272000DF93EC0108811981095010400231110535
:1027300010F000E010E03801882477FC8094982C99
:10274000C401B30120E833E341EE51E00E94B5211A
:102750005B016C0180E897E0ACE5B9E4A80EB91E16
:10276000CA1EDB1EC401B30122E0969587957795BA
:1027700067952A95D1F720E831E541E050E00E94C5
:10278000B521A60EB71EC81ED91E0F5F1F4F0370BE
:1027900010700115110539F48A81833020F0A20EE2
:1027A000B31EC41ED51EEA81F0E0CF0101978C3024
:1027B000910510F0E1E0F0E0EE0FFF1FE454FF4F51
:1027C0002081318140E050E06B8170E0CB010197C6
:1027D0008F31910510F061E070E061507040882702
:1027E00077FD8095982F620F731F841F951F20E837
:1027F00031E541E050E00E94B521DC01CB016D8163
:1028000070E06831710510F061E070E03E812CE30A
:10281000329F700111242F81E20EF11C0027F7FC7A
:102820000095102FEA0CFB1C0C1D1D1DE80EF91E57
:102830000A1F1B1F882777FD8095982F20E13EE017
:1028400040E050E00E94B521E60EF71E081F191F58
:10285000B701C801DF91CF911F910F91FF90EF90C9
:10286000DF90CF90BF90AF909F908F907F906F90B0
:1028700008958F929F92AF92BF92CF92DF92EF9284
:10288000FF920F931F93DF93CF930F92CDB7DEB7D5
:10289000E82E142F69830E94DF096981862F0E9428
:1028A000120A812F0E94120A0E94070A84E296E00F
:1028B000A1E081509040A040E1F700C00000103C32
:1028C00049F484E296E0A1E081509040A040E1F715
:1028D00000C000008E2D8F5F0E94DF090E94240A35
:1028E000C82EDD240E94240AA82E0E94300AB82E89
:1028F0000E94070A760100E010E0C801B70147E036
:102900000E945215882371F0C801B70146E00E9469
:102910005215882339F08FEF9FEF9093FD0080933D
:10292000FC006DC0C801B70147E00E945215882322
:1029300041F4C801B70146E00E945215882309F40A
:102940005EC08A2C9924C801B70147E00E94521545
:102950008823F1F0C801B70146E00E945215882390
:10296000B9F4C401880F991F880F991FDC2CCC245F
:10297000DD0CDD0C8C0D9D1DB294B694B69453E025
:10298000B5228B0D911D9093FD008093FC0039C002
:10299000C801B70147E00E945215882391F5C8018C
:1029A000B70146E00E945215882359F1C401880FEF
:1029B000991F880F991FDC2CCC24DD0CDD0C8C0DAD
:1029C0009D1DB294B694B69423E0B2228B0D911D56
:1029D000809590959093FD008093FC008091FC0081
:1029E0009091FD008F3F910571F08091FC009091D6
:1029F000FD0001969093FD008093FC0004C082E0EE
:102A000003C080E001C081E00F90CF91DF911F9162
:102A10000F91FF90EF90DF90CF90BF90AF909F907D
:102A20008F9008950E943914823099F0813041F4DA
:102A30002091FC003091FD00309521953F4F06C05C
:102A4000882361F42091FC003091FD0040E050E0CB
:102A500008C020E030E041E050E003C020E030E07A
:102A6000A901B901CA0108951F920F920FB60F92E2
:102A700011248F938091FE008F5F8093FE008091E0
:102A8000FE008C3048F081E08093F6001092FE004A
:102A90008093FF00AE9A13BE8F910F900FBE0F90E0
:102AA0001F901895DC01CB0104C0B695A7959795AA
:102AB00087954A95D2F7817008950F931F938C01E3
:102AC0000E94370C802F912FFC018AEF11928150C8
:102AD000E9F71F910F910895859B02C0959808957D
:102AE000959A0895F89489B7816089BF12BE83B71B
:102AF000856083BF7894089580E90E94DF0981E0B2
:102B00000E94120A80E00E94120A0E94070A80E9CD
:102B10000E94DF0980E10E94120A83E10E94120AEA
:102B20000E94070A80E90E94DF0981E10E94120ADF
:102B300080E00E94120A0E94070A80E90E94DF09D1
:102B400082E10E94120A83E00E94120A0E94070A90
:102B50000895813041F480E90E94DF0982E10E94FA
:102B6000120A87E007C080E90E94DF0982E10E9423
:102B7000120A83E00E94120A0E94070A0895EF9247
:102B8000FF920F931F9380E80E94DF0985EE0E9459
:102B9000120A81E598EB0197F1F700C0000081E887
:102BA0000E94DF090E94240A082F0E94240A182F7D
:102BB0000E94300A0E94070A80E80E94DF0983EE23
:102BC0000E94120A8BE497E3A1E081509040A0405C
:102BD000E1F700C081E80E94DF090E94240AE82E84
:102BE0000E94240AF82E0E94300A0E94070A5E2DD5
:102BF00040E04F0D511D302F20E0210F311DBA0153
:102C0000C9011F910F91FF90EF9008951F93CF93EB
:102C1000DF93182F0E94600A88E194E00197F1F792
:102C200000C0C8EDD0E0812FBE010E94960A8DEA57
:102C300097E4A1E081509040A040E1F700C000C0BF
:102C4000812FBE010E94960ADF91CF911F910895B6
:102C5000FF920F931F93DF93CF93CDB7DEB76797A4
:102C60000FB6F894DEBF0FBECDBFF82EDE0116966C
:102C7000EEEDF0E081E101900D928150E1F7DE018F
:102C80001196E0EFF0E085E001900D928150E1F7C0
:102C900090E08E010A5F1F4F8F2DB80141E19F8B9D
:102CA0000E94EA0AF80101900020E9F771979F89D4
:102CB000E017F10719F09F5F933071F720E0E0E033
:102CC000CE010696DC01A20FB11D3C913A3509F404
:102CD000E22F2F5F2830B1F7CE010696F0E0329652
:102CE000E80FF91FDE01119621912D93A817B9075E
:102CF000D9F7CE01019660E070E04AE050E00E9412
:102D0000DB1ACB0167960FB6F894DEBF0FBECDBFBE
:102D1000CF91DF911F910F91FF900895DF93CF9393
:102D200000D0CDB7DEB704C0000089819A81019739
:102D30009A83898389819A8182309105A8F70F90BF
:102D40000F90CF91DF9108951F920F920FB60F92BF
:102D500011242F933F938F939F9384B18093F90015
:102D600085B18093FA001092F8001092F70020913C
:102D7000F7003091F8008091FA0090E0822B932BBD
:102D80009093F8008093F7008091F7009091F800FD
:102D9000982F88279093F8008093F7002091F700F0
:102DA0003091F8008091F90090E0822B932B909362
:102DB000F8008093F7009F918F913F912F910F9092
:102DC0000FBE0F901F90189586B1876086B9339A11
:102DD000379A0895EF92FF920F931F93DF93CF934B
:102DE0000F92CDB7DEB7182F789400E0EE24FF24C1
:102DF0001AC088E893E169830E948E1617B987B1DB
:102E0000806C87B988E893E10E948E16369A80E13B
:102E100097E20E948E162091F7003091F800E20EA2
:102E2000F31E0F5F6981061720F3C70170E00E944F
:102E3000E021CB010F90CF91DF911F910F91FF9077
:102E4000EF9008951F93CF93DF93EB01142F8530FC
:102E500009F44AC0863040F4833019F1843088F593
:102E6000823009F089C00DC0873009F463C0873013
:102E700008F44DC0883009F470C0893009F07CC076
:102E800074C0842F90E073E0880F991F7A95E1F762
:102E9000BC016F5F7F4F8C0F9D1F48E050E00E9488
:102EA000A41E812F90E063E0880F991F6A95E1F7D7
:102EB000BC016F5F7F4F8C0F9D1F48E050E00E9468
:102EC000BC1E812F90E053E0880F991F5A95E1F7BF
:102ED0009E0120563F4FBC016F557F4F820F931FBD
:102EE00048E050E00E94A41E812F90E043E0880F4C
:102EF000991F4A95E1F79E0120563F4FBC016F553F
:102F00007F4F820F931F48E050E00E94BC1E812F2C
:102F100090E033E0880F991F3A95E1F79E01205C1D
:102F20003E4FBC016F5B7E4F820F931F48E050E025
:102F30000E94A41E812F90E023E0880F991F2A95FC
:102F4000E1F79E01205C3E4FBC016F5B7E4F820F1C
:102F5000931F48E050E00E94BC1E80E090E00E9479
:102F6000B41EFE01E950FD4F8083C950DD4F80E063
:102F700090E068810E94C61EDF91CF911F91089555
:102F80005058BB27AA270ED0DCC0CDD030F0D2D00D
:102F900020F031F49F3F11F41EF4C2C00EF4E0950E
:102FA000E7FBB8C0E92FDED080F3BA1762077307DA
:102FB0008407950718F071F49EF5F6C00EF4E095BD
:102FC0000B2EBA2FA02D0B01B90190010C01CA01E3
:102FD000A0011124FF27591B99F0593F50F4503E8E
:102FE00068F11A16F040A22F232F342F4427585F80
:102FF000F3CF469537952795A795F0405395C9F798
:103000007EF41F16BA0B620B730B840BBAF091504F
:10301000A1F0FF0FBB1F661F771F881FC2F70EC0EE
:10302000BA0F621F731F841F48F4879577956795C1
:10303000B795F7959E3F08F0B3CF9395880F08F0AA
:103040009927EE0F97958795089540D008F481E071
:103050000895E89409C097FB3EF49095809570958B
:1030600061957F4F8F4F9F4F9923A9F0F92F96E9D4
:10307000BB279395F695879577956795B795F11149
:10308000F8CFFAF4BB0F11F460FF1BC06F5F7F4FE6
:103090008F4F9F4F16C0882311F096E911C07723F8
:1030A00021F09EE8872F762F05C0662371F096E801
:1030B000862F70E060E02AF09A95660F771F881FD0
:1030C000DAF7880F9695879597F90895990F000874
:1030D000550FAA0BE0E8FEEF16161706E807F907EA
:1030E000C0F012161306E407F50798F0621B730B85
:1030F000840B950B39F40A2661F0232B242B252B06
:1031000021F408950A2609F4A140A6958FEF811DA8
:10311000811D089597F99F6780E870E060E0089549
:103120009FEF80EC089500240A94161617061806DF
:103130000906089500240A941216130614060506BB
:103140000895092E0394000C11F4882352F0BB0F4C
:1031500040F4BF2B11F460FF04C06F5F7F4F8F4FAF
:103160009F4F089557FD9058440F551F59F05F3FEA
:1031700071F04795880F97FB991F61F09F3F79F099
:1031800087950895121613061406551FF2CF46951B
:10319000F1DF08C0161617061806991FF1CF86959D
:1031A0007105610508940895E894BB276627772781
:1031B000CB0197F908958ADF08F48FEF08950BD0BB
:1031C000C0CFB1DF28F0B6DF18F0952309F0A2CF09
:1031D000A7CF1124EACFC6DFA0F3959FD1F3950FB7
:1031E00050E0551F629FF001729FBB27F00DB11D8B
:1031F000639FAA27F00DB11DAA1F649F6627B00D1B
:10320000A11D661F829F2227B00DA11D621F739F03
:10321000B00DA11D621F839FA00D611D221F749F11
:103220003327A00D611D231F849F600D211D822F58
:10323000762F6A2F11249F5750408AF0E1F088239F
:103240004AF0EE0FFF1FBB1F661F771F881F9150AC
:103250005040A9F79E3F510570F05CCFA6CF5F3F6D
:10326000ECF3983EDCF3869577956795B795F795DF
:10327000E7959F5FC1F7FE2B880F911D9695879567
:1032800097F90895EF92FF920F931F93322FF02E2C
:1032900047FF02C0A4E101C0A4E0E42FFF27E7FD3F
:1032A000F095F7FF03C0F095E195FF4F4F2D512F9B
:1032B0002E2F032FEA2E0E94D31E8F2D912F1F91A8
:1032C0000F91FF90EF900895A1E0B0E0EAE6F9E1F8
:1032D0000C941A225B016115710521F0DB018C93BE
:1032E00011969C93482F592F6A01F601E1906F01C6
:1032F0008F018E2D90E00E940A1C0097B1F7FE2DE1
:10330000FD3229F4D601ED908D0121E007C0BE2DDC
:10331000BB3219F4F601E1908F0120E068010894B6
:10332000C108D108C6016CE174E043E050E0298394
:103330000E941B1C2981009711F572E0E72EF12CE9
:10334000E00EF11EC7016FE174E045E050E00E941D
:103350001B1C2981009729F467E0E62EF12CE00E72
:10336000F11EA114B10421F0D5011196FC92EE9248
:1033700020FF0FC130E020E090E88FEF12C1C601BE
:1033800064E274E043E050E029830E941B1C298121
:10339000009731F060E070E0CB01662477240AC02A
:1033A000A114B10409F4F9C00E5F1F4FF501118398
:1033B0000083F3C03E2D30533A30A0F52260E22F57
:1033C000F0E0AF014870507022FF07C04115510571
:1033D00071F50894611C711C2AC04115510519F042
:1033E0000894610871086B017C0152E0CC0CDD1C73
:1033F000EE1CFF1C5A95D1F76C0D7D1D8E1D9F1D77
:10340000660F771F881F991F630F711D811D911D06
:103410006839F9E97F07F9E98F07F9E19F0738F083
:10342000246005C03E3F39F423FD3FC02860D80129
:10343000ED908D01BFCF353311F03531B1F5F80185
:1034400031913D3211F4206102C03B3241F4D80188
:1034500011963C911197319642E050E002C041E054
:1034600050E030533A3020F08F01041B150B1DC083
:1034700040E050E0BCE040385B075CF4DA01AA0FA2
:10348000BB1FAA0FBB1F4A0F5B1F440F551F430FE3
:10349000511D319130538F013A3060F324FF03C046
:1034A000509541955F4F640E751EC22EDD2421FF9D
:1034B00008C0A114B10429F001501040F501118396
:1034C00000830E9429187B018C01F3E0CF22DD24C8
:1034D00033E0C316D10421F417FB109517F91095AA
:1034E000C801B70120E030E0A9010E942518882317
:1034F00009F44AC077FE09C04BE3C42E44E0D42E41
:10350000709461947108739404C033E5C32E34E061
:10351000D32E26E0822E912C90E2A92EB12C0FC042
:10352000F6012591359145915491C801B7010E944A
:10353000DF18E62EF72E082F192F6A187B086A1459
:103540007B0474F7B594A7940894810891088114BA
:10355000910429F08CEF9FEFC80ED91EF0CFB70170
:10356000C801282F220F292F221F2F3F39F020E0DA
:1035700030E0A9010E942518882331F482E290E00E
:1035800090930101809300013E2D2F2D902F812FCC
:1035900008C030E020E090E803C030E020E090EC8C
:1035A0008FE7F901AC016F2F722F852F942F219691
:1035B000EEE00C9436222F923F924F925F926F92E0
:1035C0007F929F92AF92BF92CF92DF92EF92FF9243
:1035D0000F931F93CF93DF933B01EA0161157105B0
:1035E00019F0FB0180839183209739F09E012250CE
:1035F00030402332310508F0D5C0C82ED92EF6014F
:1036000011916F017F01812F90E00E940A1C0097A9
:10361000B1F71D3231F4F60111917F019924939491
:1036200006C01B3219F4F60111917F0199242097ED
:1036300019F0C031D105D1F4103389F4F70180813C
:10364000883711F0883559F4F701118182E090E054
:10365000E80EF91E92E0992AC0E1D0E007C0209759
:1036600029F41033B1F0CAE0D0E02BC0CA30D10544
:1036700041F1C031D10521F0C830D105A9F409C00C
:103680002FEFA22E2FEFB22E2FEFC22E2FE0D22E31
:1036900020C0C8E0D0E09FEFA92E9FEFB92E9FEF8A
:1036A000C92E9FE1D92E15C09E01442737FD4095B4
:1036B000542F6FEF7FEFCB010E94F42159016A0173
:1036C00008C089E9A82E89E9B82E89E9C82E89E1C0
:1036D000D82E60E020E030E0A9011E01442437FC30
:1036E0004094542C012F00530A3060F0812F8154F4
:1036F0008A3110F4075006C0812F81568A3150F567
:10370000012F0755802F90E08C179D071CF56F3F08
:10371000E9F0A216B306C406D506A8F0CA01B9019D
:10372000A20191010E94B5219B01AC01802F90E084
:10373000A0E0B0E0280F391F4A1F5B1F2817390788
:103740004A075B0710F46FEF01C061E0F7011191C8
:103750007F01C8CF6114710481F0662339F00894A9
:10376000E108F108F301F182E08207C091FE05C093
:10377000C7010297F3019183808390FE07C05095A3
:103780004095309521953F4F4F4F5F4F67FF0DC0DC
:1037900082E290E090930101809300012FEF3FEFD0
:1037A000A90103C020E030E0A901B901CA01DF91FD
:1037B000CF911F910F91FF90EF90DF90CF90BF902E
:1037C000AF909F907F906F905F904F903F902F9021
:1037D0000895FC0188279927E89421912032E9F384
:1037E000293010F02E30C8F32B3241F02D3239F44D
:1037F000689404C00E946D1C820F911D219120537A
:103800002A30C0F31EF4909581959F4F0895F89447
:103810000C944D229111F6C4803219F089508550D4
:10382000D0F70895FB01DC018D91059080190110FE
:10383000D9F3990B0895FB01DC014150504088F009
:103840008D9181341CF08B350CF4805E6591613470
:103850001CF06B350CF4605E861B611171F3990BE3
:103860000895881BFCCFDC0101C06D93415050408E
:10387000E0F70895FB01DC010D900020E9F71197B6
:1038800001900D920020E1F70895FB01DC01019009
:103890000D920020E1F70895FB019F01E89442306A
:1038A000C4F04532B4F44A3029F497FB1EF49095E5
:1038B00081959F4F642F77270E94E021805D8A3396
:1038C0000CF0895D8193CB010097A1F716F45DE2BE
:1038D00051931082C9010C941B217AE0979F902D7F
:1038E000879F802D910D11240895FA01CF93FF93A6
:1038F000EF932230CCF02532BCF4C22F2C2F33278B
:1039000044275527FF93EF930E94F421EF91FF91F5
:10391000605D6A330CF0695D6193B901CA01605062
:1039200070408040904051F710828F919F91CF91CD
:103930000C941B21AEE0B0E0E0EAFCE10C94242200
:103940000D891E8986E08C831A8309838FEF9FE798
:103950009E838D839E01275E3F4FCE0101966F8926
:10396000788DA9010E94BD1CEF81F885E00FF11F41
:1039700010822E96E4E00C944022ACE0B0E0E3EC40
:10398000FCE10C9416226C011B018A01FC011782D8
:103990001682838181FFD1C12E010894411C511CE4
:1039A000F6019381F10193FD859193FF81911F01B0
:1039B000882309F4BEC1853239F493FD859193FFC4
:1039C00081911F01853229F490E0B6010E942B21DC
:1039D000E7CFEE24FF2420E02032B0F48B3269F0F0
:1039E0008C3228F4803251F0833271F40BC08D3266
:1039F00039F0803349F421602CC02260246029C052
:103A0000286027C0206125C027FD2CC0382F3053E7
:103A10003A3098F426FF08C08E2D880FE82EEE0C61
:103A2000EE0CE80EE30E15C08F2D880FF82EFF0C5C
:103A3000FF0CF80EF30E20620CC08E3221F426FD2E
:103A400078C1206406C08C3611F4206802C0883624
:103A500049F4F10193FD859193FF81911F01882322
:103A600009F0BACF982F9554933018F090529330B4
:103A700028F40C5F1F4FFFE3F9830DC0833631F04C
:103A8000833771F0833509F060C022C0F80180816E
:103A900089830E5F1F4F420171E0A72EB12C16C023
:103AA00062E0662E712C600E711EF801808091809C
:103AB00026FF03C06E2D70E002C06FEF7FEFC401E0
:103AC0002C870E9410215C0183012C852F7717C061
:103AD00052E0652E712C600E711EF801808091807D
:103AE00026FF03C06E2D70E002C06FEF7FEFC401B0
:103AF0002C870E9405215C012C852068830123FD11
:103B000020C008C080E290E0B6012C870E942B21E3
:103B1000FA942C858F2D90E0A816B90698F311C061
:103B2000F40127FD859127FF81914F0190E0B601B7
:103B30002C870E942B212C85F110FA940894A1085F
:103B4000B108A114B10461F7F1C0843611F08936CF
:103B500049F527FF08C0F801608171818281938156
:103B60000C5F1F4F09C0F80160817181882777FDC4
:103B70008095982F0E5F1F4F4FE6B42EB22297FF0D
:103B800009C090958095709561957F4F8F4F9F4F9D
:103B9000F0E8BF2AA2012AE030E00E945721782EE7
:103BA000741845C0853731F43FEEB32EB2222AE0B7
:103BB00030E025C099EFB92EB2228F36C1F08037A0
:103BC00020F4883509F0B5C00DC0803721F0883762
:103BD00009F0AFC002C020E1B22AB4FE0BC084E0FD
:103BE000B82A08C0B4FE09C0E6E0BE2A06C028E034
:103BF00030E005C020E130E002C020E132E0B7FE55
:103C000008C0F80160817181828193810C5F1F4F30
:103C100007C0F8016081718180E090E00E5F1F4F66
:103C2000A2010E945721782E7418FFE7BF22B6FE2A
:103C30000BC02EEFB2227E1438F4B4FE07C0B2FCE3
:103C400005C08FEEB82202C0A72C01C0AE2C8B2D70
:103C500090E0B4FE0DC0FE01E70DF11D2081203380
:103C600019F4E9EEBE2209C0A394B2FE06C004C056
:103C700086789070009709F0A3948B2C9924B3FC5C
:103C800014C0B0FE0FC0AF1428F4E72CEF0CEA18F4
:103C9000AF2C08C0E72C06C080E290E0B6010E947D
:103CA0002B21A394AF14C0F304C0AF1410F4FA187E
:103CB00001C0FF2484FE0FC080E390E0B6010E94A3
:103CC0002B2182FE1FC081FE03C088E590E010C05A
:103CD00088E790E00DC0C40186789070009791F05D
:103CE00081FC02C080E201C08BE2B7FC8DE290E073
:103CF000B6010E942B2106C080E390E0B6010E942D
:103D00002B21EA947E14C0F37A94F201E70DF11DA1
:103D1000808190E0B6010E942B217720A9F706C090
:103D200080E290E0B6010E942B21FA94FF20C1F7B7
:103D300037CEF6012681378102C02FEF3FEFC90150
:103D40002C96E2E10C943222DC01CB01FC01E199DA
:103D5000FECF06C0FFBBEEBBE09A31960DB20D92CE
:103D600041505040B8F70895E199FECF9FBB8EBBFC
:103D7000E09A99278DB30895DC01CB0103C02D9102
:103D80000E94C71E41505040D0F70895262FE19958
:103D9000FECF9FBB8EBB2DBB0FB6F894E29AE19A83
:103DA0000FBE01960895A9E0B0E0E9EDFEE10C94A4
:103DB0001E226A01F22E102F0C3318F4B02EB39489
:103DC00002C0ECE3BE2EAE014F5F5F4F27E00B2D2C
:103DD0000E942A20298130E0A901497050704130A9
:103DE000510531F0E1FC06C0E0FE06C0E0E205C08E
:103DF000EDE203C0EBE201C0E0E023FF37C0EE23B9
:103E000011F084E001C083E08F1518F4F81A8F2DAB
:103E100001C080E0E4FC0BC0982FD60120E202C074
:103E20002D9391509923E1F7C80ED11C80E0EE2329
:103E300019F0D601ED936D01F6013196E2FE05C051
:103E40009EE4D6019C9321E404C09EE6D6019C9397
:103E500021E611962C9391833296982FDF0120E270
:103E600002C02D9391509923E1F73DC022FF41C03C
:103E7000EE2311F084E001C083E08F1518F4F81AE6
:103E80008F2D01C080E0E4FC0BC0982FD60120E20A
:103E900002C02D9391509923E1F7C80ED11C80E008
:103EA000EE2319F0D601ED936D01F6013196E2FE95
:103EB00009C099E4D6019C939EE411969C931197B6
:103EC00096E407C099E6D6019C939EE611969C93D2
:103ED00096E691833296982FDF0120E202C02D935F
:103EE00091509923E1F7E80FF11D10822EEF3FEF7B
:103EF000ACC041E050E0EE2311F440E050E0181671
:103F0000190624F4BC016F5F7F4F02C061E070E0CE
:103F1000640F751F112329F0412F50E04F5F5F4F51
:103F200002C040E050E0460F571F6F2D70E046176B
:103F300057071CF40F2D041B01C000E0FF24A7014C
:103F400040715070E4FC0DC0E3FC0BC0602FD60143
:103F500070E202C07D9361506623E1F7C00ED11C70
:103F600000E0EE2319F0D601ED936D0141155105E6
:103F700059F4402FF60150E302C0519341504423BD
:103F8000E1F7C00ED11C00E0B80EFA80A901407123
:103F9000507024FF04C0BF2DB13309F4BA941B1430
:103FA0002CF4AB2DA93018F0A8E001C0A1E09C01D1
:103FB00097FF02C020E030E0BC016F5F7F4F621BC3
:103FC000730BFE013196E60FF71F6EE2E62EBC0181
:103FD0006A1B7109A12FB0E0AA24BB24AA1ABB0A4C
:103FE0001FEF2F3F310719F4D601ED926D018217B3
:103FF00093072CF06217730714F4108101C010E3CB
:104000002150304031962A153B0524F0D6011D93EE
:104010006D01E6CF2817390749F4BF2DB63328F4D0
:10402000B53321F44115510509F411E3F60111935B
:10403000802FDF0190E202C09D9381508823E1F739
:10404000E00FF11D108220E030E0C9012996EAE07E
:104050000C943A22283008F027E03327DA01990F30
:10406000311D87FD916000966105710539F432605C
:104070002E5F3D9330E32A95E1F708959F3F30F09E
:1040800080387105610509F03C5F3C5F3D939130DC
:1040900008F08068911DDF93CF931F930F93FF92D9
:1040A000EF92192F987F9695E92F96959695E90F9F
:1040B000FF27EF54FB4F99273327EE24FF24A70156
:1040C000E70105900894079428F4360FE71EF81EC0
:1040D000491F511D660F771F881F991F0694A1F76E
:1040E0000590079428F4E70EF81E491F561FC11DBE
:1040F000770F881F991F661F0694A1F705900794F4
:1041000028F4F80E491F561FC71FD11D880F991F8D
:10411000661F771F0694A1F70590079420F4490FB6
:10412000561FC71FD81F990F661F771F881F069439
:10413000A9F784911095177041F0D695C7955795BA
:104140004795F794E7941A95C1F7E7E5F4E068948A
:104150001590159135916591959105907FE2739534
:10416000E118F10A430B560BC90BD009C0F7E10C5B
:10417000F11E431F561FC91FD01D7EF4703311F46A
:104180008A95E6CFE894015030F0080F0AF4002732
:10419000021708F4202F2395022F7A3328F079E3B1
:1041A0007D932A95E9F710C07D932A9589F60694A8
:1041B00097956795379517951794E118F10A430B72
:1041C000560BC90BD00998F023957E9173957A33DD
:1041D00008F070E37C932013B8F77E9170617D93B3
:1041E00030F0839571E37D9370E32A95E1F7112414
:1041F000EF90FF900F911F91CF91DF91992787FD4D
:1042000090950895992788270895FC01059061509D
:1042100070400110D8F7809590958E0F9F1F0895DC
:10422000FC016150704001900110D8F78095909585
:104230008E0F9F1F0895DC01FC01672F719177237A
:10424000E1F7329704C07C916D9370836291AE1751
:10425000BF07C8F308950F931F93CF93DF938C018B
:10426000EB018B8181FF1BC082FF0DC02E813F813E
:104270008C819D812817390764F4E881F9810193C5
:10428000F983E88306C0E885F985802F09950097B2
:1042900031F48E819F8101969F838E8302C00FEF40
:1042A0001FEFC801DF91CF911F910F910895FA017F
:1042B000AA27283051F1203181F1E8946F936E7F65
:1042C0006E5F7F4F8F4F9F4FAF4FB1E03ED0B4E056
:1042D0003CD0670F781F891F9A1FA11D680F791F97
:1042E0008A1F911DA11D6A0F711D811D911DA11DA8
:1042F00020D009F468943F912AE0269F11243019B8
:10430000305D3193DEF6CF010895462F4770405D52
:104310004193B3E00FD0C9F7F6CF462F4F70405D01
:104320004A3318F0495D31FD4052419302D0A9F75C
:10433000EACFB4E0A6959795879577956795BA9556
:10434000C9F700976105710508959B01AC010A2E1C
:1043500006945795479537952795BA95C9F7620FF3
:10436000731F841F951FA01D0895629FD001739F26
:10437000F001829FE00DF11D649FE00DF11D929F01
:10438000F00D839FF00D749FF00D659FF00D992740
:10439000729FB00DE11DF91F639FB00DE11DF91F64
:1043A000BD01CF0111240895991B79E004C0991F24
:1043B000961708F0961B881F7A95C9F7809508957F
:1043C000AA1BBB1B51E107C0AA1FBB1FA617B7073B
:1043D00010F0A61BB70B881F991F5A95A9F7809557
:1043E0009095BC01CD010895A1E21A2EAA1BBB1B1A
:1043F000FD010DC0AA1FBB1FEE1FFF1FA217B307B1
:10440000E407F50720F0A21BB30BE40BF50B661FC6
:10441000771F881F991F1A9469F76095709580958A
:1044200090959B01AC01BD01CF0108952F923F9261
:104430004F925F926F927F928F929F92AF92BF92B4
:10444000CF92DF92EF92FF920F931F93CF93DF9360
:10445000CDB7DEB7CA1BDB0B0FB6F894DEBF0FBEBD
:10446000CDBF09942A88398848885F846E847D840A
:104470008C849B84AA84B984C884DF80EE80FD800C
:104480000C811B81AA81B981CE0FD11D0FB6F89482
:0E449000DEBF0FBECDBFED010895F894FFCF43
:10449E002363616C56616C733A2C312C002C000A2C
:1044AE0000236F6666736574733A2C302C00746942
:1044BE006D652C7365636F6E64732C6865616449FA
:1044CE00442C000000000000300020003A00256C53
:1044DE006400000000000000000000000000002C3E
:1044EE0000000000000000000000000000000000BE
:1044FE001F003B005A0078009700B500D400F3006F
:10450E00110130014E016D014B20310D0A000000EA
:10451E00000000000000000000000000000000008D
:06452E0000000000000087
:00000001FF
